{
  "contractName": "CertificationC1",
  "abi": [
    {
      "inputs": [],
      "stateMutability": "nonpayable",
      "type": "constructor"
    },
    {
      "inputs": [
        {
          "internalType": "uint16",
          "name": "a",
          "type": "uint16"
        },
        {
          "internalType": "uint16",
          "name": "b",
          "type": "uint16"
        }
      ],
      "name": "function1",
      "outputs": [
        {
          "internalType": "uint16",
          "name": "result",
          "type": "uint16"
        }
      ],
      "stateMutability": "nonpayable",
      "type": "function"
    },
    {
      "inputs": [
        {
          "internalType": "uint16",
          "name": "a",
          "type": "uint16"
        }
      ],
      "name": "function2",
      "outputs": [
        {
          "internalType": "uint16",
          "name": "result",
          "type": "uint16"
        }
      ],
      "stateMutability": "nonpayable",
      "type": "function"
    }
  ],
  "bytecode": "0x608060405234801561001057600080fd5b506101ff806100206000396000f3fe608060405234801561001057600080fd5b5060043610610052577c0100000000000000000000000000000000000000000000000000000000600035046382c56fc78114610057578063b572c25414610081575b600080fd5b61006a6100653660046100f5565b610094565b60405161ffff909116815260200160405180910390f35b61006a61008f366004610128565b6100b9565b60006100a08284610179565b3360009081526020819052604090204390559392505050565b60006100c68260026101a3565b33600090815260016020526040902043905592915050565b803561ffff811681146100f057600080fd5b919050565b6000806040838503121561010857600080fd5b610111836100de565b915061011f602084016100de565b90509250929050565b60006020828403121561013a57600080fd5b610143826100de565b9392505050565b7f4e487b7100000000000000000000000000000000000000000000000000000000600052601160045260246000fd5b600061ffff8083168185168183048111821515161561019a5761019a61014a565b02949350505050565b600061ffff8083168185168083038211156101c0576101c061014a565b0194935050505056fea26469706673582212201c203e9bb7f9768d9770f3f578e90fde8785a75f24b6b44d53f5c2355226e78464736f6c634300080f0033",
  "immutableReferences": {},
  "source": "// SPDX-License-Identifier: Hedera Foundation\n\npragma solidity ^0.8.15;\n\ncontract CertificationC1 {\n\n\n    mapping(address => uint256) function1Called;\n    mapping(address => uint256) function2Called;\n\n    /**\n     * @dev\n     * empty constructor of the contract\n     */\n    constructor(){\n    }\n\n    /**\n     * @dev\n     * public function to multiply a * b\n     * @param a first int to multiply\n     * @param b second int to multiply\n     */\n    function function1(uint16 a, uint16 b) public returns (uint16 result) {\n        result = a * b;\n        function1Called[msg.sender] = block.number;\n        return result;\n    }\n\n    /**\n     * @dev\n     * public function to add 2 to a\n     * @param a first int to add to\n     */\n    function function2(uint16 a) public returns (uint16 result) {\n        result = a + 2;\n        function2Called[msg.sender] = block.number;\n        return result;\n    }\n}\n",
  "sourcePath": "C:\\ACCUBITS\\STUDY\\HEDERA\\hedera-certificate\\Task_3_Smartcontract\\contracts\\certificationC3.sol",
  "compiler": {
    "name": "solc",
    "version": "0.8.15+commit.e14f2714.Emscripten.clang"
  },
  "schemaVersion": "3.4.3",
  "updatedAt": "2023-02-10T09:24:48.826Z",
  "devdoc": {
    "kind": "dev",
    "methods": {
      "constructor": {
        "details": "empty constructor of the contract"
      },
      "function1(uint16,uint16)": {
        "details": "public function to multiply a * b",
        "params": {
          "a": "first int to multiply",
          "b": "second int to multiply"
        }
      },
      "function2(uint16)": {
        "details": "public function to add 2 to a",
        "params": {
          "a": "first int to add to"
        }
      }
    },
    "version": 1
  },
  "userdoc": {
    "kind": "user",
    "methods": {},
    "version": 1
  }
}